:10000000ACC0B9C0B8C0B7C0B6C0B5C0B4C0B3C04A
:10001000B2C0B1C000000000000000003E7F715976
:100020004D7F3E0040427F7F40400000627359494F
:100030006F660000226349497F360000181C165382
:100040007F7F5000276745457D3900003C7E4B4946
:1000500079300000030371790F070000367F4949AA
:100060007F360000064F49693F1E00007C7E131357
:100070007E7C0000417F7F49497F36001C3E634102
:1000800041632200417F7F41633E1C00417F7F49E5
:100090005D416300417F7F491D0103001C3E6341B8
:1000A000517372007F7F08087F7F000000417F7FCF
:1000B00041000000307040417F3F0100417F7F08D8
:1000C0001C776300417F7F41406070007F7F0E1C82
:1000D0000E7F7F007F7F060C187F7F001C3E6341F0
:1000E000633E1C00417F7F49090F06001E3F2171BE
:1000F0007F5E0000417F7F09197F6600266F4D59A2
:100100007332000003417F7F410300007F7F404046
:100110007F7F00001F3F60603F1F00007F7F30181F
:10012000307F7F0043673C183C674300074F787877
:100130004F070000476371594D677300202020204E
:100140004841505059204E45572059454152203280
:100150003032312020202020000011241FBECFE9A2
:10016000CDBF20E0A0E6B0E001C01D92A839B207E3
:10017000E1F729D031C144CF000098E0C1980000D8
:1001800087FF02C0C09A01C0C098C19A880F9150E1
:10019000A9F708950F931F93CF93DF93C29AEC01B1
:1001A0008C01085F1F4F8881E7DF8981E5DF229698
:1001B000C017D107C1F7C2980000C29ADF91CF9152
:1001C0001F910F910895CF93DF93CDB7DD27C850CE
:1001D000CDBF87B3876087BB89E089831A828B8311
:1001E0001C828D831E828F831886CE010196D2DFFA
:1001F0009BE0998387E08A839B838C839D838E8396
:100200009F838887CE010196C5DF1AE019830FE02E
:100210000A831B830C831D830E831F830887CE01F3
:100220000196B8DF09831A820B831C820D831E821C
:100230000F831886CE010196ADDF9CE0998381E0A3
:100240008A839B838C839D838E839F838887CE0143
:100250000196A0DF198388E08A831B838C831D832A
:100260008E831F838887CE01019694DFFCE3EF2EF7
:10027000F1E0FF2EA8E1CA2E00E610E088E0D82EBB
:1002800020E23AE23A95F1F72A95E1F70000A7015A
:1002900020E030E0FA0184919FEB980F993110F43F
:1002A000865307C090ED980F9A3010F48F5201C01A
:1002B00080E090E0E3E0880F991FEA95E1F7A0E67F
:1002C000B0E060E070E0FC01E60FF71FEC5EFF4F6E
:1002D000E491ED936F5F7F4F68307105A1F74F5F39
:1002E0005F4FFA0184919FEB980F993110F4865378
:1002F00007C090ED980F9A3010F48F5201C080E043
:1003000090E073E0880F991F7A95E1F7A8E6B0E0D6
:1003100060E070E0FC01E60FF71FEC5EFF4FE49138
:10032000ED936F5F7F4F68307105A1F7F90163E0CE
:10033000EE0FFF1F6A95E1F7CF0180599F4F4C01E7
:10034000A7E0B0E0F401B08067E070E0C801860F7C
:10035000971FFC01808190E00A2E02C09595879539
:100360000A94E2F78170BB0CB82A6150710970F7EA
:10037000F401B1924F01119728F72F5F3F4F2430BE
:10038000310509F087CF90E7892E90E0992EBB24A4
:10039000B394B982F401808D8A83BB8280898C8377
:1003A000BD8280858E83BF828081FFEF8F1A9F0A76
:1003B0008887CE010196EEDEB39489E0B812E9CFCA
:1003C000DA940F5F1F4FD1105BCFCA949FEFE91AE9
:0C03D000F90AC11051CF4ACFF894FFCFBA
:00000001FF
