:100000001CC42BC42AC429C428C427C426C425C49C
:1000100024C423C422C421C420C41FC41EC400009D
:100020000000000000007E8195B1B195817E7EFFC9
:10003000EBCFCFEBFF7E0E1F3F7E3F1F0E00081C55
:100040003E7F3E1C080018BAFFFFFFBA180010B828
:10005000FCFFFCB810000000183C3C180000FFFF3B
:10006000E7C3C3E7FFFF003C664242663C00FFC3B4
:1000700099BDBD99C3FF70F88888FD7F070F004EBA
:100080005FF1F15F4E00C0E0FF7F05050707C0FF8D
:100090007F0505657F3F995A3CE7E73C5A997F3ECB
:1000A0003E1C1C08080008081C1C3E3E7F00002463
:1000B00066FFFF662400005F5F00005F5F00060FC1
:1000C000097F7F017F7F40DABFA5FD5903020070E1
:1000D0007070707070008094B6FFFFB6948000045A
:1000E000067F7F0604000010307F7F301000080874
:1000F000082A3E1C0800081C3E2A080808003C3C50
:10010000202020202000081C3E08083E1C08303813
:100110003C3E3E3C3830060E1E3E3E1E0E060000A3
:1001200000000000000000065F5F060000000007FE
:10013000070007070000147F7F147F7F1400242E20
:100140006B6B3A120000466630180C666200307A1B
:100150004F5D377A48000407030000000000001CD0
:100160003E63410000000041633E1C000000082A7D
:100170003E1C1C3E2A0808083E3E0808000000807D
:10018000E0600000000008080808080800000000FF
:100190006060000000006030180C060301003E7F24
:1001A00071594D7F3E0040427F7F404000006273A6
:1001B00059496F660000226349497F360000181CC8
:1001C00016537F7F5000276745457D3900003C7EF0
:1001D0004B4979300000030371790F070000367F27
:1001E00049497F360000064F49693F1E0000000064
:1001F0006666000000000080E66600000000081C43
:1002000036634100000024242424242400000041FB
:1002100063361C080000020351590F0600003E7FA0
:10022000415D5D1F1E007C7E13137E7C0000417FBC
:100230007F49497F36001C3E634141632200417F74
:100240007F41633E1C00417F7F495D416300417FE8
:100250007F491D0103001C3E6341517372007F7F83
:1002600008087F7F000000417F7F41000000307060
:1002700040417F3F0100417F7F081C776300417F41
:100280007F41406070007F7F0E1C0E7F7F007F7F6C
:10029000060C187F7F001C3E6341633E1C00417FBB
:1002A0007F49090F06001E3F21717F5E0000417FDC
:1002B0007F09197F6600266F4D5973320000034194
:1002C0007F7F410300007F7F40407F7F00001F3F12
:1002D00060603F1F00007F7F3018307F7F004367E2
:1002E0003C183C674300074F78784F07000047638E
:1002F00071594D677300007F7F4141000000010389
:10030000060C183060000041417F7F000000080C9F
:100310000603060C080080808080808080800000BA
:10032000030704000000207454543C784000417FCF
:100330003F4848783000387C44446C2800003078CE
:1003400048493F7F4000387C54545C180000487E88
:100350007F490302000098BCA4A4F87C0400417FFC
:100360007F08047C780000447D7D4000000060E050
:100370008080FD7D0000417F7F10386C440000418B
:100380007F7F400000007C7C18381C7C78007C7CDF
:1003900004047C780000387C44447C38000084FCF1
:1003A000F8A4243C1800183C24A4F8FC8400447CE5
:1003B000784C041C1800485C545474240000000459
:1003C0003E7F442400003C7C40403C7C40001C3C80
:1003D00060603C1C00003C7C7038707C3C00446CCD
:1003E0003810386C44009CBCA0A0FC7C00004C641D
:1003F000745C4C64000008083E7741410000000036
:100400000077770000004141773E080800000203B2
:1004100001030203010070784C464C7870000E9F77
:1004200091B1FB4A00003A7A40407A7A4000387C29
:1004300054555D19000002237555557D7B42217589
:1004400054547D794000217555547C7840002074C7
:1004500057577C784000183CA4A4E4400000023BBD
:100460007D55555D1B02397D54545D190000397D61
:1004700055545C18000001457C7C410100000203DA
:10048000457D7D43020001457D7C40000000797D73
:100490001612167D790070782B2B78700000447C42
:1004A0007C5555450000207454547C7C54547C7E0B
:1004B0000B097F7F4900327B49497B320000327A49
:1004C00048487A320000327A4A48783000003A7B55
:1004D00041417B7A40003A7A4240787840009ABAAB
:1004E000A0A0FA7A000001193C66663C19013D7D26
:1004F00040407D3D0000183C24E7E7242400687E4E
:100500007F49436620002B2FFCFC2F2B0000FFFFB0
:1005100009092FF6F8A040C088FE7F090302207465
:1005200054557D79400000447D7D410000003078C5
:10053000484A7A320000387840427A7A40007A7A23
:100540000A0A7A7000007D7D19317D7D0000002649
:100550002F292F2F280000262F292F260000307842
:100560004D456020000038380808080800000808D9
:100570000808383800004F6F3018CCEEBB914F6F31
:1005800030186C76FBF90000007B7B000000081C33
:100590003622081C362222361C0822361C08AA00E5
:1005A0005500AA005500AA55AA55AA55AA55DDFF1F
:1005B000AA77DDAAFF77000000FFFF0000001010FF
:1005C00010FFFF000000141414FFFF0000001010C3
:1005D000FFFF00FFFF001010F0F010F0F000141407
:1005E00014FCFC0000001414F7F700FFFF000000EB
:1005F000FFFF00FFFF001414F4F404FCFC001414CB
:100600001717101F1F0010101F1F101F1F0014149A
:10061000141F1F000000101010F0F0000000000078
:10062000001F1F1010101010101F1F10101010109E
:1006300010F0F0101010000000FFFF10101010104C
:10064000101010101010101010FFFF1010100000EC
:1006500000FFFF1414140000FFFF00FFFF10000054
:100660001F1F101717140000FCFC04F4F4141414DA
:100670001717101717141414F4F404F4F4140000EA
:10068000FFFF00F7F71414141414141414141414A2
:10069000F7F700F7F71414141417171414141010A4
:1006A0001F1F101F1F10141414F4F414141410102E
:1006B000F0F010F0F01000001F1F101F1F100000BE
:1006C000001F1F141414000000FCFC14141400007C
:1006D000F0F010F0F0101010FFFF10FFFF101414D6
:1006E00014FFFF1414141010101F1F00000000004E
:1006F00000F0F0101010FFFFFFFFFFFFFFFFF0F012
:10070000F0F0F0F0F0F0FFFFFFFF0000000000004D
:100710000000FFFFFFFF0F0F0F0F0F0F0F0F387CB1
:10072000446C386C4400FCFE2A2A3E1400007E7E95
:10073000020206060000027E7E027E7E02006377D1
:100740005D4963630000387C447C3C04040080FE07
:100750007E20203E1E000406027E7C06020099BD1B
:10076000E7E7BD9900001C3E6B496B3E1C004C7EC8
:100770007301737E4C0030784A4F7D390000183C7D
:10078000243C3C243C1898FC643C3E273D181C3E0D
:100790006B49490000007E7F01017F7E00002A2A0C
:1007A0002A2A2A2A000044445F5F44440000405142
:1007B0005B4E4440000040444E5B5140000000004E
:1007C00000FEFF01070660E080FF7F0000000808D0
:1007D0006B6B08080000243612362436120000061F
:1007E0000F090F06000000000018180000000000AC
:1007F000001010000000103070C0FFFF0101001F4A
:100800001F011F1E000000191D171200000000002C
:100810003C3C3C3C000000000000000000002020A8
:100820004861707079204E65772059656172203279
:100830003032312021212120000011241FBECFE5BC
:10084000D2E0DEBFCDBF22E0A0E6B0E001C01D9245
:10085000A030B207E1F729D001C1D2CB000098E067
:10086000C198000087FF02C0C09A01C0C098C19A19
:10087000880F9150A9F708950F931F93CF93DF939B
:10088000C29AEC018C01045F1F4F8881E7DF8981E8
:10089000E5DF2296C017D107C1F7C2980000C29ABF
:1008A000DF91CF911F910F910895CF93DF93CDB733
:1008B000DEB72C970FB6F894DEBF0FBECDBF8E010A
:1008C0000F5F1F4F8CE0D8011D928A95E9F787B31F
:1008D000876087BB68017E01BDE0EB0EF11CF8016B
:1008E00089E0808311823296EE15FF05D1F7C801A9
:1008F000C3DFF8019BE087E0908381833296EE1698
:10090000FF06D1F7C801B8DFF8019AE08FE09083C5
:1009100081833296EE16FF06D1F7C801ADDFF801EC
:100920008FE0808311823296EE16FF06D1F7C80160
:10093000A3DFF8019CE081E0908381833296EE167C
:10094000FF06D1F7C80198DF9AE088E0F6019083AE
:100950008183F2E0CF0ED11CCE14DF04B9F7C801B9
:100960008BDF6EE178E020E331E050E0C52E52E00D
:10097000D52EFB01849190E043E0880F991F4A95A2
:10098000E1F7D90140E050E0FC01E40FF51FE25E21
:10099000FF4FE491ED934F5F5F4F48305105A1F752
:1009A0006F5F7F4F285F3F4FC216D30611F7CC24ED
:1009B000C394D12C87E893E10197F1F700C00000C0
:1009C00020E030E0F901E05AFF4F67E070E04601B7
:1009D000820E931EB08047E050E0CA01880D991D39
:1009E000805D9E4FDC018C9190E0062E02C09595B3
:1009F00087950A94E2F78170BB0CB82A41505109DF
:100A000060F7B1926150710928F7285F3F4F20339A
:100A10003105C1F680E6882E80E0982EBB24B39481
:100A2000F801D401B08298968C9198978183329680
:100A30001897EE16FF06B1F7C8011EDFB3949FEFBB
:100A4000891A990AA9E0BA12EBCFBFEFCB1ADB0AD9
:100A5000E1EACE16D10409F0ADCFA9CFF894FFCFCB
:00000001FF
